:100000000C9424010C944C010C944C010C944C0164
:100010000C944C010C944C010C944C010C944C012C
:100020000C944C010C944C010C944C010C944C011C
:100030000C944C010C944C010C944C010C944C010C
:100040000C948E050C944C010C94FE050C94D80570
:100050000C944C010C944C010C944C010C944C01EC
:100060000C944C010C944C0150415F4D4158005090
:10007000415F484947480050415F4C4F570050414D
:100080005F4D494E0031362062697473003820623A
:100090006974730044697361626C6564006E5246F2
:1000A00032344C30312B006E524632344C303100F9
:1000B0003235304B42505300324D42505300314D97
:1000C0004250530000010203040500000008000232
:1000D0000100000304070000000000000000000011
:1000E0000000250028002B0000000000240027004D
:1000F0002A000404040404040404020202020202AA
:1001000003030303030301020408102040800102DB
:100110000408102001020408102053544154555380
:100120000909203D203078253032782052585F442C
:10013000523D25782054585F44533D2578204D4149
:10014000585F52543D25782052585F505F4E4F3DC6
:1001500025782054585F46554C4C3D25780D0A00B3
:10016000504120506F77657209203D2025530D0ABC
:10017000007E0077006F006800435243204C656E9C
:1001800067746809203D2025530D0A0094008D00F6
:1001900085004D6F64656C0909203D2025530D0ACB
:1001A00000A7009D004461746120526174650920BC
:1001B0003D2025530D0A00BE00B800B00044594E42
:1001C00050442F4645415455524500434F4E4649F1
:1001D00047090052465F53455455500052465F430D
:1001E000480900454E5F52584144445200454E5F15
:1001F0004141090052585F50575F50302D3600542E
:10020000585F41444452090052585F414444525F90
:1002100050322D350052585F414444525F50302DCA
:1002200031000D0A00253032780020307800255347
:1002300009203D000D0A0020307825303278002555
:100240005309203D0000300611241FBECFEFD8E037
:10025000DEBFCDBF22E0A6E4B1E001C01D92AB300D
:10026000B207E1F711E0A0E0B1E0E0EBF6E102C097
:1002700005900D92A634B107D9F711E0C4E2D1E0A0
:1002800004C02197FE010E944B0BC332D107C9F76E
:100290000E9476060C94560B0C94000090E0FC0132
:1002A000EA5FFE4F2491FC01EE50FF4F84918823BA
:1002B00099F090E0880F991FFC01E851FF4FA5913C
:1002C000B491FC01E252FF4F859194918FB7F8945D
:1002D000EC91E22BEC938FBF089590E0FC01E65384
:1002E000FF4F2491FC01EA5FFE4F3491FC01EE5078
:1002F000FF4FE491EE2309F43CC0222339F123306F
:1003000091F038F42130A9F0223001F584B58F7DC9
:1003100012C0273091F02830A1F02430B9F4809138
:1003200080008F7D03C0809180008F778093800054
:100330000DC084B58F7784BD09C08091B0008F77E0
:1003400003C08091B0008F7D8093B000F0E0EE0F8D
:10035000FF1FE252FF4FA591B4919FB7F89461112E
:1003600004C08C913095382302C0EC913E2B3C9315
:100370009FBF08952091ED013091EE014091EF0172
:100380005091F0012417350721F0682F822F0C942B
:100390006D0108958230910538F0880F991F880FFC
:1003A000991F05970197F1F70895CF93DF939CB5B7
:1003B0009F7D9CBD9CB5937F9CBD9CB59C7F9CBD47
:1003C0009DB591609DBDCDEED1E0682F8A810E94E0
:1003D0006D018C899D89DF91CF910C94CA0181E0D8
:1003E0000C94D50180E00C94D5013FB7F89480912E
:1003F0004C0190914D01A0914E01B0914F0126B555
:10040000A89B05C02F3F19F00196A11DB11D3FBF4C
:10041000BA2FA92F982F8827820F911DA11DB11DDA
:10042000BC01CD0142E0660F771F881F991F4A95D6
:10043000D1F708958F929F92AF92BF92CF92DF92A1
:10044000EF92FF926B017C010E94F5014B015C0170
:10045000C114D104E104F104F1F00E94F501DC01C2
:10046000CB0188199909AA09BB09883E9340A105C7
:10047000B10570F321E0C21AD108E108F10888EE55
:10048000880E83E0981EA11CB11CC114D104E104A4
:10049000F10419F7DDCFFF90EF90DF90CF90BF9080
:1004A000AF909F908F900895CF92DF92EF92FF923E
:1004B0000F931F93CF93DF936C017A018B01C0E000
:1004C000D0E0CE15DF0581F0D8016D918D01D60108
:1004D000ED91FC910190F081E02DC6010995892BE9
:1004E00011F02196EECF7E01C701DF91CF911F91D0
:1004F0000F91FF90EF90DF90CF900895089580E0E6
:1005000090E00895FC01538D448D252F30E0842F19
:1005100090E0821B930B541710F0CF96089501972B
:100520000895FC01918D828D981761F0828DDF0115
:10053000A80FB11D5D968C91928D9F5F9F73928FD6
:1005400090E008958FEF9FEF0895FC01918D828DCB
:10055000981731F0828DE80FF11D858D90E0089598
:100560008FEF9FEF0895FC01918D228D892F90E0F0
:10057000805C9F4F821B91098F739927089580E5B6
:1005800091E00E94B30221E0892B09F420E0822F40
:100590000895FC01848DDF01A80FB11DA35ABF4F40
:1005A0002C91848D90E001968F739927848FA68972
:1005B000B7892C93A089B1898C9180648C93938D99
:1005C000848D981306C00288F389E02D80818F7D89
:1005D00080830895EF92FF920F931F93CF93DF9341
:1005E000EC0181E0888F9B8D8C8D981305C0E88984
:1005F000F989808185FD24C0F62E0B8D10E00F5FF8
:100600001F4F0F731127E02E8C8DE8120CC00FB610
:1006100007FCFACFE889F989808185FFF5CFCE0103
:100620000E94C902F1CF8B8DFE01E80FF11DE35A44
:10063000FF4FF0820B8FEA89FB898081806207C0BF
:10064000EE89FF896083E889F989808180648083ED
:1006500081E090E0DF91CF911F910F91FF90EF909B
:100660000895CF93DF93EC01888D8823C9F0EA8940
:10067000FB89808185FD05C0A889B9898C9186FD9B
:100680000FC00FB607FCF5CF808185FFF2CFA88998
:10069000B9898C9185FFEDCFCE010E94C902E7CFC9
:1006A000DF91CF91089580E090E0892B29F00E949E
:1006B000BF0281110C94000008958EBD00000DB49E
:1006C00007FEFDCF8EB50895CF93C82F0E94F2018B
:1006D0008C2F8F710E945D038FEF0E945D03C82FE6
:1006E0000E94EF018C2FCF910895CF93C82F0E94C5
:1006F000F2018C2F0E945D03C82F0E94EF018C2F06
:10070000CF910895CF93DF93C82FD62F0E94F20187
:100710008C2F8F7180620E945D03C82F8D2F0E94E5
:100720005D030E94EF018C2FDF91CF9108950F930D
:100730001F93CF938C0186E00E946403C82FC77D6E
:100740000230110531F4C0628BE990E0A0E0B0E026
:100750000DC00130110529F085E590E0A0E0B0E082
:1007600005C0C86081E490E0A0E0B0E08093FD01A6
:100770009093FE01A093FF01B09300026C2F86E0DE
:100780000E94820386E00E94640391E0C81390E017
:10079000892FCF911F910F910895FF920F931F936F
:1007A000CF93DF93C62FD42F9F938F938FE392E045
:1007B0009F938F930E945D08DC0F0F900F900F9016
:1007C0000F9007E312E0CD1791F0FF24F394FC0E95
:1007D0008C2F0E9464031F928F931F930F930E948C
:1007E0005D080F900F900F900F90CF2DECCF84E30A
:1007F00092E09F938F930E945D080F900F90DF917E
:10080000CF911F910F91FF9008952F923F924F9299
:100810005F926F927F928F929F92AF92BF92CF9290
:10082000DF92EF92FF920F931F93CF93DF931F926C
:10083000CDB7DEB7962E342E4DB65EB69F938F930E
:100840008EE292E09F938F930E945D08390C0F9087
:100850000F900F900F908AE2C82E82E0D82E95E27A
:10086000A92E92E0B92E931409F44AC06DB67EB653
:100870002090FB01022D10E08DB79EB7801B910BDD
:100880000FB6F8949EBF0FBE8DBFEDB7FEB7319681
:100890007F01F1E0F90DF9830E94F201892D8F713A
:1008A0000E945D034701222041F08FEF0E945D030B
:1008B000F40181934F012A94F6CF0E94EF01DF9259
:1008C000CF920E945D080E0D1F1D0F900F900150DA
:1008D00011090E151F0568F0F80180811F928F9392
:1008E000BF92AF920E945D080F900F900F900F90F3
:1008F000EECF0FB6F8947EBE0FBE6DBE9980B3CF1B
:1009000082E292E09F938F930E945D080F900F9078
:100910000FB6F8945EBE0FBE4DBE0F90DF91CF9123
:100920001F910F91FF90EF90DF90CF90BF90AF900D
:100930009F908F907F906F905F904F903F902F90FF
:100940000895CF938FEF0E947503282F30E0982FE2
:1009500091701F929F9335952795277033273F936A
:100960002F9384FB992790F91F929F9385FB9927DA
:1009700090F91F929F9386FB992790F91F929F935E
:100980001F928F938AE191E09F938F930E945D085D
:1009900042E06AE085E192E00E94050444E06CE0F8
:1009A00088E092E00E94CD0341E060E18FEF91E0AA
:1009B0000E94050446E061E184EF91E00E94CD03CE
:1009C00041E061E08DEE91E00E94CD0341E062E004
:1009D00083EE91E00E94CD0341E065E08CED91E073
:1009E0000E94CD0341E066E083ED91E00E94CD03DB
:1009F00041E060E08BEC91E00E94CD0342E06CE1CD
:100A00008DEB91E00E94CD0386E00E946403887222
:100A10002DB73EB7225F3F4F0FB6F8943EBF0FBED3
:100A20002DBF803241F021E090E0883009F020E0D5
:100A3000E22FF92F02C0E2E0F0E0EE0FFF1FE954D1
:100A4000FE4F859194919F938F9385EA91E09F93B8
:100A50008F930E945D08E091F301F0E0EE0FFF1F1D
:100A6000EF55FE4F859194919F938F9382E991E08A
:100A70009F938F930E945D0880E00E946403C82FBB
:100A800081E00E9464032DB73EB7285F3F4F0FB649
:100A9000F8943EBF0FBE2DBFC3FD02C0882329F0CE
:100AA000C2FD06C0E1E0F0E005C0E0E0F0E002C019
:100AB000E2E0F0E0EE0FFF1FE457FE4F85919491C6
:100AC0009F938F9389E791E09F938F930E945D0896
:100AD00086E00E9464038670E82FF0E0EF58FE4F36
:100AE000859194919F938F9380E691E09F938F934C
:100AF0000E945D088DB79EB708960FB6F8949EBF0A
:100B00000FBE8DBFCF91089542E050E067E271E0E3
:100B100080E591E00C9454020E94510B1F920F92B9
:100B20000FB60F9211242F933F938F939F93AF9300
:100B3000BF938091480190914901A0914A01B091E1
:100B40004B013091470123E0230F2D3720F401960C
:100B5000A11DB11D05C026E8230F0296A11DB11DE0
:100B6000209347018093480190934901A0934A0143
:100B7000B0934B0180914C0190914D01A0914E0199
:100B8000B0914F010196A11DB11D80934C0190932E
:100B90004D01A0934E01B0934F01BF91AF919F9132
:100BA0008F913F912F910F900FBE0F901F9018952E
:100BB0001F920F920FB60F9211242F933F934F93D2
:100BC0005F936F937F938F939F93AF93BF93EF93B5
:100BD000FF9380E591E00E94C902FF91EF91BF91E0
:100BE000AF919F918F917F916F915F914F913F91C5
:100BF0002F910F900FBE0F901F9018951F920F927C
:100C00000FB60F9211242F938F939F93EF93FF931F
:100C1000E0916001F09161018081E0916601F091C5
:100C2000670182FD12C09081809169018F5F8F738F
:100C300020916A01821751F0E0916901F0E0E05BD8
:100C4000FE4F958F8093690101C08081FF91EF91E4
:100C50009F918F912F910F900FBE0F901F9018951D
:100C6000E0E5F1E01382128288EE93E0A0E0B0E0CC
:100C700084839583A683B78389E191E09183808300
:100C800085EC90E09587848784EC90E09787868751
:100C900080EC90E0918B808B81EC90E0938B828B49
:100CA00082EC90E0958B848B86EC90E0978B868B22
:100CB000118E128E138E148EEDEEF1E083E090E033
:100CC0009183808384E090E093838283168280E224
:100CD0008783108685E0868785E090E0A0E0B0E01D
:100CE000848B958BA68BB78B11860895789484B5E9
:100CF000826084BD84B5816084BD85B5826085BD18
:100D000085B5816085BD80916E00816080936E00A5
:100D10001092810080918100826080938100809197
:100D20008100816080938100809180008160809348
:100D300080008091B10084608093B1008091B00008
:100D400081608093B00080917A00846080937A0003
:100D500080917A00826080937A0080917A0081602D
:100D600080937A0080917A00806880937A00109254
:100D7000C100E0916001F091610182E08083E09127
:100D80005C01F0915D011082E0915E01F0915F01E4
:100D900080E1808310926801E0916401F091650127
:100DA00086E08083E0916201F0916301808180613F
:100DB0008083E0916201F09163018081886080838B
:100DC000E0916201F0916301808180688083E0910D
:100DD0006201F091630180818F7D808368EE73E012
:100DE00080E090E00E941A028091ED019091EE0166
:100DF0002091EF013091F0018217930711F00E94CA
:100E00004E018091EF019091F0012091ED01309120
:100E1000EE012817390711F00E944E01CFB7F89460
:100E200080914601811124C0ECEFF0E08491E0E173
:100E3000F1E09491E82FF0E0EE0FFF1FE851FF4F33
:100E4000A591B491EC91E92321F461E08AE00E943C
:100E50006D018AE00E944E018CB580618CBD8CB51D
:100E600080648CBD8DE00E944E018BE00E944E019B
:100E7000809146018F5F80934601CFBF80E00E9442
:100E8000BA0181E00E94D50165E070E080E090E069
:100E90000E941A026CE080E00E9482036FE584E009
:100EA0000E94820382E090E00E949703882319F059
:100EB00081E08093F30186E00E94640380E090E08B
:100EC0000E9497030E94F20180E50E945D0383E780
:100ED0000E945D030E94EF0160E08DE10E948203A9
:100EE00060E08CE10E9482031092F50160E787E0E8
:100EF0000E9482036CE485E00E94820382EE0E94DD
:100F0000750381EE0E94750380E00E94640381FDF9
:100F10000BC0682F626080E00E94820365E070E091
:100F200080E090E00E941A0280E00E946403682F33
:100F30006E7F80E00E94820363E585E00E94820369
:100F4000C091FB010E94F2018AE20E945D0300E071
:100F500011E07801CC2339F0F70181917F010E94E3
:100F60005D03C150F7CF0E94EF01C091FB010E94C9
:100F7000F20180E30E945D03CC2339F0F8018191F6
:100F80008F010E945D03C150F7CF0E94EF01609175
:100F9000F40181E10E94820386E00E946403887F5D
:100FA000682F616086E00E94820382E090E00E94E8
:100FB000970380E00E94BA018091FD019091FE01AB
:100FC0000E94CA018DE10E94640381FF09C08091E3
:100FD000FD019091FE010E94CA0181EE0E947503FD
:100FE00080E00E946403682F6E7F80E00E9482038D
:100FF00082E00E946403E4ECF0E0E49161E070E0E0
:1010000001C0660FEA95EAF7682B82E00E9482032E
:101010000E94A104C091F401DC2FC03108F0DFE090
:101020008091F501811102C0CD1B01C0C0E00E947A
:10103000F20180EA0E945D0306E011E0D15030F039
:10104000F80181918F010E945D03F8CFCC2329F034
:1010500080E00E945D03C150F9CF0E94EF0181E062
:101060000E94BA018FEF0E9475038073D9F380E06C
:101070000E94BA0160E787E00E94820384FF18C0E3
:1010800081EE0E9475034EE050E06AE271E080E577
:1010900091E00E9454020E9484050E94A10468EE1F
:1010A00073E080E090E00E941A020E945303B2CFE6
:1010B0004BE050E069E371E0EACFA0E0B0E0E3E6A6
:1010C000F8E00C94220BAE01495F5F4FDA016D919D
:1010D0007D91AD0105E012E0F80182819381DC0190
:1010E00013962C911397286013962C930E948308D3
:1010F000D8011296ED91FC9113972381277F2383CA
:10110000E4E00C943E0BABE0B0E0E9E8F8E00C94CE
:10111000140B6C017B018A01FC011782168283810A
:1011200081FFCCC1CE0101963C01F6019381F7010C
:1011300093FD859193FF81917F01882309F4BAC1C2
:10114000853239F493FD859193FF81917F0185323A
:1011500029F4B60190E00E947A0AE7CF912C212C65
:10116000312CFFE1F315D8F08B3279F038F480326E
:1011700079F08332A1F4232D20611DC08D3261F0FE
:10118000803369F4232D216016C0832D8260382EB0
:10119000E32DE4603E2E2AC0F32DF8601DC037FC1D
:1011A0002DC020ED280F2A3040F08E32B9F436FCE5
:1011B00081C1232D2064322E19C036FE06C08AE07C
:1011C000989E200D1124922E11C0EAE02E9E200D33
:1011D0001124222EF32DF0623F2E08C08C3621F40C
:1011E000832D8068382E02C0883641F4F70193FDC4
:1011F000859193FF81917F018111B3CF982F9F7DBE
:101200009554933028F40C5F1F4F9FE399830DC0D2
:10121000833631F0833771F0833509F059C021C02E
:10122000F801808189830E5F1F4F88248394912C5D
:10123000530113C02801F2E04F0E511CF801A080A9
:10124000B18036FE03C0692D70E002C06FEF7FEF02
:10125000C5010E946F0A4C018201F32DFF773F2EDA
:1012600016C0280122E0420E511CF801A080B18076
:1012700036FE03C0692D70E002C06FEF7FEFC5013D
:101280000E94640A4C01F32DF0683F2E820133FC6A
:101290001BC0822D90E088169906B0F4B60180E25A
:1012A00090E00E947A0A2A94F4CFF50137FC8591E8
:1012B00037FE81915F01B60190E00E947A0A211009
:1012C0002A9421E0821A91088114910471F7E8C0F0
:1012D000843611F0893641F5F80137FE07C0608188
:1012E0007181828193810C5F1F4F08C06081718181
:1012F000072E000C880B990B0E5F1F4FF32DFF7606
:101300003F2E97FF09C090958095709561957F4F0E
:101310008F4F9F4FF0683F2E2AE030E0A3010E94DC
:10132000B60A882E861845C0853731F4232D2F7EC6
:10133000B22E2AE030E025C0932D997FB92E8F364A
:10134000C1F018F4883579F0B5C0803719F08837C6
:1013500021F0B0C0E92FE061BE2EB4FE0DC0FB2D20
:10136000F460BF2E09C034FE0AC0292F2660B22EB9
:1013700006C028E030E005C020E130E002C020E1F6
:1013800032E0F801B7FE07C06081718182819381EC
:101390000C5F1F4F06C06081718180E090E00E5F9E
:1013A0001F4FA3010E94B60A882E8618FB2DFF77D7
:1013B0003F2E36FE0DC0232D2E7FA22E891458F409
:1013C00034FE0BC032FC09C0832D8E7EA82E05C0D2
:1013D000B82CA32C03C0B82C01C0B92CA4FE0FC09C
:1013E000FE01E80DF11D8081803321F49A2D997E54
:1013F000A92E09C0A2FE06C0B394B39404C08A2DDE
:10140000867809F0B394A3FC11C0A0FE06C0B21404
:1014100088F4280C922C9B180EC0B21460F4B6010C
:1014200080E290E00E947A0AB394F7CFB21418F4E5
:101430002B1802C0982C212CA4FE10C0B60180E30A
:1014400090E00E947A0AA2FE17C0A1FC03C088E7C0
:1014500090E002C088E590E0B6010CC08A2D867845
:1014600059F0A1FE02C08BE201C080E2A7FC8DE230
:10147000B60190E00E947A0A891438F4B60180E33C
:1014800090E00E947A0A9A94F7CF8A94F301E80DCB
:10149000F11D8081B60190E00E947A0A8110F5CF9B
:1014A000222009F442CEB60180E290E00E947A0A3E
:1014B0002A94F6CFF6018681978102C08FEF9FEFC5
:1014C0002B96E2E10C94300BFC01059061507040CA
:1014D0000110D8F7809590958E0F9F1F0895FC01FD
:1014E0006150704001900110D8F7809590958E0F53
:1014F0009F1F08950F931F93CF93DF93FB012381C9
:1015000021FD03C08FEF9FEF2CC022FF16C0468144
:101510005781248135814217530744F4A081B1815A
:101520009D012F5F3F4F318320838C93268137812C
:101530002F5F3F4F3783268314C08B01EC01FB01E3
:101540000084F185E02D0995892BE1F6D8011696E6
:101550008D919C911797019617969C938E93169751
:10156000CE01DF91CF911F910F910895FA01AA2723
:10157000283051F1203181F1E8946F936E7F6E5FD6
:101580007F4F8F4F9F4FAF4FB1E03ED0B4E03CD084
:10159000670F781F891F9A1FA11D680F791F8A1F67
:1015A000911DA11D6A0F711D811D911DA11D20D0CE
:1015B00009F468943F912AE0269F11243019305D88
:1015C0003193DEF6CF010895462F4770405D419379
:1015D000B3E00FD0C9F7F6CF462F4F70405D4A33C6
:1015E00018F0495D31FD4052419302D0A9F7EACF8E
:1015F000B4E0A6959795879577956795BA95C9F7BD
:1016000000976105710508959B01AC010A2E0694AF
:101610005795479537952795BA95C9F7620F731F68
:10162000841F951FA01D08952F923F924F925F92A5
:101630006F927F928F929F92AF92BF92CF92DF92E2
:10164000EF92FF920F931F93CF93DF93CDB7DEB747
:10165000CA1BDB0B0FB6F894DEBF0FBECDBF0994DB
:101660002A88398848885F846E847D848C849B8432
:10167000AA84B984C884DF80EE80FD800C811B8140
:10168000AA81B981CE0FD11D0FB6F894DEBF0FBE6F
:10169000CDBFED010895EE0FFF1F0590F491E02DF1
:1016A000099481E090E0F8940C94560BF894FFCFE5
:1016B000314E6F6465004861707079204861636BDA
:1016C000696E67210000000000EA025402820231C4
:1016D00003B3029102A5020D0A00497420646964F3
:1016E0006E277420776F726B004954204449442060
:0616F000574F524B0000B1
:00000001FF
