:100000000C9462000C948A000C948A000C9459059C
:100010000C9459050C9459050C948A000C948A0090
:100020000C948A000C948A000C948A000C94D105DC
:100030000C948A000C948A000C948A000C948A0018
:100040000C94B7040C948A000C9427050C940105B9
:100050000C948A000C948A000C948A000C948A00F8
:100060000C948A000C948A000000000023002600F3
:10007000290000000000240027002A0000000000E2
:10008000250028002B0004040404040404040202D4
:100090000202020203030303030301020408102007
:1000A0004080010204081020010204081020000012
:1000B0000008000201000003040700000000000027
:1000C00000008D0611241FBECFEFD8E0DEBFCDBFEC
:1000D00011E0A0E0B1E0E0E8F7E102C005900D9288
:1000E000A233B107D9F722E0A2E3B1E001C01D922B
:1000F000A038B207E1F710E0C2E6D0E004C02197D3
:10010000FE010E94930AC136D107C9F70E94120767
:100110000C94BE0B0C94000090E0FC01E255FF4FE4
:100120002491FC01E656FF4F3491FC01EA57FF4F42
:10013000E491EE23C9F0222339F0233001F1A8F431
:10014000213019F1223029F1F0E0EE0FFF1FE458C1
:10015000FF4FA591B4918FB7F894EC91611126C02F
:1001600030953E233C938FBF08952730A9F0283067
:10017000C9F0243049F7809180008F7D03C08091C1
:1001800080008F7780938000DFCF84B58F7784BD28
:10019000DBCF84B58F7DFBCF8091B0008F778093CC
:1001A000B000D2CF8091B0008F7DF9CF3E2BDACF57
:1001B000CF93DF9390E0FC01E656FF4F24918A57DE
:1001C0009F4FFC0184918823D1F090E0880F991F04
:1001D000FC01EE58FF4FA591B491FC01E458FF4F8C
:1001E000C591D49161110EC09FB7F8948C91E22F04
:1001F000E0958E238C932881E223E8839FBFDF91D3
:10020000CF9108958FB7F894EC91E22BEC938FBFC8
:10021000F6CF3FB7F89480917E0190917F01A09135
:100220008001B091810126B5A89B05C02F3F19F030
:100230000196A11DB11D3FBFBA2FA92F982F882766
:10024000BC01CD01620F711D811D911D42E0660F41
:10025000771F881F991F4A95D1F708958F929F9213
:10026000AF92BF92CF92DF92EF92FF920E9409016C
:100270004B015C0188EEC82E83E0D82EE12CF12CD6
:100280000E940901681979098A099B09683E73402F
:1002900081059105A8F321E0C21AD108E108F1080F
:1002A00088EE880E83E0981EA11CB11CC114D104F5
:1002B000E104F10429F7FF90EF90DF90CF90BF9019
:1002C000AF909F908F900895AF92BF92CF92DF92A0
:1002D000EF92FF920F931F93CF93DF936C017B01FB
:1002E0008B01040F151FEB015E01AE18BF08C0178C
:1002F000D10759F06991D601ED91FC910190F081FF
:10030000E02DC6010995892B79F7C501DF91CF91C1
:100310001F910F91FF90EF90DF90CF90BF90AF9023
:100320000895FC01538D448D252F30E0842F90E0FB
:10033000821B930B541710F0CF96089501970895E0
:10034000FC01918D828D981761F0A28DAE0FBF2FA9
:10035000B11D5D968C91928D9F5F9F73928F90E0FF
:1003600008958FEF9FEF0895FC01918D828D98176E
:1003700031F0828DE80FF11D858D90E008958FEFAB
:100380009FEF0895FC01918D228D892F90E0805C74
:100390009F4F821B91098F739927089582E891E0FE
:1003A0000E94C20121E0892B09F420E0822F0895E8
:1003B00080E090E0892B29F00E94CE0181110C94FD
:1003C00000000895FC01A48DA80FB92FB11DA35AF8
:1003D000BF4F2C91848D90E001968F739927848F65
:1003E000A689B7892C93A089B1898C918370806488
:1003F0008C93938D848D981306C00288F389E02D29
:1004000080818F7D80830895EF92FF920F931F93D9
:10041000CF93DF93EC0181E0888F9B8D8C8D9813B7
:100420001AC0E889F989808185FF15C09FB7F894C3
:10043000EE89FF896083E889F9898081837080640F
:1004400080839FBF81E090E0DF91CF911F910F915A
:10045000FF90EF900895F62E0B8D10E00F5F1F4F69
:100460000F731127E02E8C8D8E110CC00FB607FC78
:10047000FACFE889F989808185FFF5CFCE010E9406
:10048000E201F1CFEB8DEC0FFD2FF11DE35AFF4F91
:10049000F0829FB7F8940B8FEA89FB898081806294
:1004A000CFCFCF93DF93EC01888D8823B9F0AA8951
:1004B000BB89E889F9898C9185FD03C0808186FD1F
:1004C0000DC00FB607FCF7CF8C9185FFF2CF80816E
:1004D00085FFEDCFCE010E94E201E9CFDF91CF9100
:1004E000089520917501309176012817390771F42C
:1004F0009091730180917401981741F0E09173011C
:10050000F0E0ED5CFE4F808190E008958FEF9FEF6B
:1005100008950895EF92FF920F931F93CF93DF9367
:10052000DC015C96ED90FC905D97E114F10479F4A8
:1005300081E090E013969C938E93129790E080E078
:10054000DF91CF911F910F91FF90EF9008955196F9
:10055000ED91FC91529750968C915097982F9095D1
:100560000FB75E962C915E97122F127021FD609549
:10057000F8942081112319F1282B2083E70121977A
:10058000F1F728E0462F50E0308160FF1AC0382B89
:100590003083E7012197F1F7BA01759567952150EE
:1005A00089F7112381F08081892380830FBF5C96B6
:1005B0008D919C910197F1F781E090E0C1CF2923C3
:1005C000DCCF3923E5CF9081892BEFCF20917501C6
:1005D000309176012817390761F4809174012091D8
:1005E000730190E0805C9F4F821B91098F73992764
:1005F000089590E080E00895209175013091760192
:1006000028173907B9F490917301809174019817F4
:1006100089F0E0917301F0E0ED5CFE4F8081209164
:10062000730130E02F5F3F4F2F7333272093730107
:1006300090E008958FEF9FEF089590E080E0089597
:10064000892B79F41092800082E0809381001092CF
:10065000850010928400B19A80916F00826080932F
:100660006F0008954F925F926F927F928F929F9248
:10067000AF92BF92CF92DF92EF92FF920F931F93B0
:10068000CF93DF938C01EB0129013A01FB01EE0FBF
:10069000FF1FEE0FFF1FE80FF91FC680D780E08411
:1006A000F184C701B601905820E030E040E05FE3FC
:1006B0000E94E2090E9483094B015C0120E030E0C6
:1006C00040E05FE3C701B6010E94E2090E9483098E
:1006D0006B017C01C818D908EA08FB08C301B20104
:1006E0000E9483096C597F4F8F4F9F4FA70196013E
:1006F0000E94770A28EC30E040E050E00E94200998
:10070000820E931EA41EB51ED401A55BBF4F7E01B1
:10071000EE0CFF1CA03282E0B8070CF03EC0F701DF
:10072000EC0FFD1FE00FF11F818198E8492E512C3D
:10073000481A510887FD5394440C551C440C551C11
:10074000052C000C66087708828128E532E0281B1A
:10075000310987FD3395220F331F220F331F032EDC
:10076000000C440B550B2419350946095709A53BC4
:10077000B10514F0A4EBB0E0B7FF02C0B0E0A0E018
:100780000E944A0924EB30E040E050E00E9420093A
:10079000420E531E641E751ED201CE0DDF1DC00F0A
:1007A000D11FE881EC3070F5298188E890E0821B48
:1007B000910927FD9395880F991F880F991FA817F6
:1007C000B9077CF02A8188E592E0821B910927FD18
:1007D0009395880F991F880F991FA817B9070CF4D4
:1007E000CD010297880F991F4FB7F8942E2F30E054
:1007F000F901EE0FFF1FE20FF31FE15EFD4F928341
:1008000081834FBFDF91CF911F910F91FF90EF90A8
:10081000DF90CF90BF90AF909F908F907F906F9020
:100820005F904F9008950F931F93CF93DF93EC0148
:10083000062F142F88818C3008F040C061E0802F93
:100840000E94D8008881282F30E0F901EE0FFF1FA9
:10085000E20FF31FE15EFD4F0F736081607C602B40
:10086000608319821A822CE0622F0E94870A829F7D
:10087000B001112430E020E0AB01420F531FFA0118
:10088000EE0FFF1FE40FF51FE15EFD4F908196FD17
:1008900008C02F5F3F4F2C30310571F790E00E9468
:1008A0002003E8818E2F90E0FC01EE0FFF1FE80F80
:1008B000F91FE15EFD4F8081806480838B818C30E5
:1008C00008F041C061E0812F0E94D8008B81282F61
:1008D00030E0F901EE0FFF1FE20FF31FE15EFD4F65
:1008E000912F9F731081107C192B10831C821D8205
:1008F0002CE0622F0E94870A829FB001112430E011
:1009000020E0AB01420F531FFA01EE0FFF1FE40F6F
:10091000F51FE15EFD4F908196FD08C02F5F3F4FB0
:100920002C30310571F790E00E942003EB818E2F6F
:1009300090E0FC01EE0FFF1FE80FF91FE15EFD4F95
:1009400080818064808320E030E0A90170E060E075
:10095000CE010E94320320E030E0A90161E070E0A6
:10096000CE01DF91CF911F910F910C9432031F9212
:100970000F920FB60F9211242F933F938F939F9353
:10098000AF93BF9380917A0190917B01A0917C01FC
:10099000B0917D013091790123E0230F2D3758F577
:1009A0000196A11DB11D2093790180937A01909346
:1009B0007B01A0937C01B0937D0180917E01909199
:1009C0007F01A0918001B09181010196A11DB11D0F
:1009D00080937E0190937F01A0938001B093810169
:1009E000BF91AF919F918F913F912F910F900FBE2B
:1009F0000F901F90189526E8230F0296A11DB11D98
:100A0000D2CF1F920F920FB60F9211242F933F93C4
:100A10004F935F936F937F938F939F93AF93BF9306
:100A2000EF93FF9382E891E00E94E201FF91EF9142
:100A3000BF91AF919F918F917F916F915F914F91F6
:100A40003F912F910F900FBE0F901F9018951F92FE
:100A50000F920FB60F9211242F938F939F93EF93C2
:100A6000FF93E0919201F09193018081E0919801D0
:100A7000F091990182FD1BC0908180919B018F5F55
:100A80008F7320919C01821741F0E0919B01F0E06F
:100A9000EE57FE4F958F80939B01FF91EF919F91B1
:100AA0008F912F910F900FBE0F901F9018958081FE
:100AB000F4CF1F920F920FB60F9211242F933F93F2
:100AC0004F935F936F937F938F939F93AF93BF9356
:100AD000EF93FF93E0917501F0917601309749F023
:100AE000A685B7858585968D91FF14C09C91892335
:100AF000A1F4FF91EF91BF91AF919F918F917F9161
:100B00006F915F914F913F912F910F900FBE0F907A
:100B10001F9018959C91892361F7A389B4899C91B2
:100B20008589809589238C93868997890197F1F728
:100B3000608D718DA685B785558538E020E0CB01A5
:100B40000197F1F7822F90E095958795282F4C918A
:100B5000452309F02068315091F7868D81FD20955D
:100B60008091740190E001968F7399273091730101
:100B7000381799F0A0917401B0E0AD5CBE4F2C9392
:100B800080937401828D938D0197F1F7A389B489C5
:100B90008C919589892B8C93ACCF868D8160868FC3
:100BA000F1CF1F920F920FB60F9211242F933F9304
:100BB0004F935F936F937F938F939F93AF93BF9365
:100BC000CF93DF93EF93FF9380913201C091430263
:100BD000D0E087FF24C0109285001092840080919D
:100BE00032018F5F8093320180913201082E000C18
:100BF000990B8C179D0724F4809132018C30C4F13D
:100C00008091840090918500049680349C4908F47A
:100C10007AC08091840090918500049676C080917E
:100C20003201082E000C990B8C179D07C4F6E09139
:100C300032018E2FEE0F990BFC01EE0FFF1FE80F14
:100C4000F91FE15EFD4F808186FFC9CFE09132013F
:100C50008E2FEE0F990BFC01EE0FFF1FE80FF91F0F
:100C6000E15EFD4F808160E08F730E948C00B7CF02
:100C70002091840030918500E09132018E2FEE0F9B
:100C8000990BFC01EE0FFF1FE80FF91FE15EFD4F0E
:100C900081819281820F931F9093890080938800B5
:100CA000E09132018E2FEE0F990BFC01EE0FFF1F2A
:100CB000E80FF91FE15EFD4F808186FF11C0E091D2
:100CC00032018E2FEE0F990BFC01EE0FFF1FE80F84
:100CD000F91FE15EFD4F808161E08F730E948C00FF
:100CE000FF91EF91DF91CF91BF91AF919F918F9144
:100CF0007F916F915F914F913F912F910F900FBE18
:100D00000F901F90189580E49CE990938900809340
:100D100088008FEF80933201E3CFCF93DF9310925F
:100D200085011092840188EE93E0A0E0B0E080930A
:100D3000860190938701A0938801B093890184E292
:100D400091E0909383018093820185EC90E09093F1
:100D50008F0180938E0184EC90E0909391018093B9
:100D6000900180EC90E0909393018093920181EC4C
:100D700090E0909395018093940182EC90E09093A1
:100D800097018093960186EC90E09093990180936F
:100D9000980110929B0110929C0110929D0110925B
:100DA0009E01C4E4D2E04CE752E028EB3BE06FEF59
:100DB000809143028C30B0F06883809143028C3084
:100DC00008F16B8388E0E6E0F1E0DE011696019021
:100DD0000D928A95E1F72E964C175D0749F7DF9142
:100DE000CF91089591E0980F90934302888390E00B
:100DF000FC01EE0FFF1FE80FF91FE15EFD4F32838C
:100E00002183DBCF91E0980F909343028B8390E096
:100E1000FC01EE0FFF1FE80FF91FE15EFD4F32836B
:100E20002183D0CF789484B5826084BD84B58160FD
:100E300084BD85B5826085BD85B5816085BD8091A5
:100E40006E00816080936E0010928100809181001D
:100E50008260809381008091810081608093810015
:100E6000809180008160809380008091B1008460D7
:100E70008093B1008091B00081608093B000809138
:100E80007A00846080937A0080917A0082608093F7
:100E90007A0080917A00816080937A0080917A0054
:100EA000806880937A001092C100E0919201F091E5
:100EB000930182E08083E0918E01F0918F01108296
:100EC000E0919001F09191018FEC808310929A0152
:100ED000E0919601F091970186E08083E091940182
:100EE000F0919501808180618083E0919401F0917F
:100EF0009501808188608083E0919401F091950153
:100F0000808180688083E0919401F09195018081D7
:100F10008F7D808343E050E062E070E084E492E003
:100F20000E94130445E050E064E070E082E592E046
:100F30000E94130447E050E066E070E080E692E033
:100F40000E94130449E050E068E070E08EE692E011
:100F50000E9413048FE190E00E94990AEC011B8229
:100F60001A8288EE93E0A0E0B0E08C839D83AE838C
:100F7000BF8382E191E0998388831F8A1E8A198E3C
:100F8000188E1B8E1A8E1D8E1C8E6E8D6E7F6D7F41
:100F90006E8F6695617081E068278BE00E948C00FF
:100FA00061E08BE00E94D800E5EAF0E0E491E88B94
:100FB000E1E9F0E0E491F0E0EE0FFF1FE458FF4FAD
:100FC000859194919A8B898B60E08AE00E94D80089
:100FD0008E8D81FD04C061E08AE00E948C008AE071
:100FE0008C87E4EAF0E0E491ED87E0E9F0E0E49159
:100FF000F0E0EE0FFF1FE859FF4F859194919F8716
:101000008E87D0937801C09377018DE991E09D8F11
:101010008C8F8DEB90E09F8B8E8B8BE991E0998F7D
:10102000888F8CE291E09B8F8A8F8091680081602D
:10103000809368009C852DE630E0983050F02BE6D8
:1010400030E09E3030F02CE630E0963110F030E0A9
:1010500020E03C8B2B8B292F30E0983008F0E3C048
:1010600081E001C0880F9A95EAF78D8B8C8D9D8D5C
:101070000197F1F78A8D9B8D892B09F1E09175011C
:10108000F0917601CE17DF07D1F0309739F0A389C0
:10109000B4899C918589809589238C938E8D8E7FD0
:1010A0008E8F1092740110927301D0937601C093C9
:1010B0007501EB89FC8980819D89892B8083C0E043
:1010C000D0E08091770190917801DC01ED91FC9165
:1010D0000284F385E02D099520E030E0A90170E05D
:1010E00060E084E492E00E94320320E030E0A90155
:1010F00061E070E084E492E00E94320320E030E09E
:10110000A90170E060E08EE692E00E94320320E0E8
:1011100030E0A90161E070E08EE692E00E943203C7
:1011200020E030E048EC52EC70E060E082E592E0D4
:101130000E94320320E030E048EC52E461E070E0CD
:1011400082E592E00E94320320E030E048EC52E475
:1011500070E060E080E692E00E94320320E030E040
:1011600048EC52EC61E070E080E692E00E943203CD
:101170000E942E0120E030E048EC52EC70E060E08C
:1011800084E492E00E94320320E030E048EC52EC2C
:1011900061E070E084E492E00E94320320E030E0FD
:1011A00048EC52E470E060E08EE692E00E94320388
:1011B00020E030E048EC52E461E070E08EE692E03E
:1011C0000E94320320E030E0A90170E060E082E597
:1011D00092E00E94320320E030E0A90161E070E07B
:1011E00082E592E00E94320320E030E0A90170E045
:1011F00060E080E692E00E94320320E030E0A90146
:1012000061E070E080E692E00E9432030E942E01CD
:10121000209709F456CF0E94CE01882309F451CFBC
:101220000E9400004ECF9E3040F42850310981E0EA
:1012300001C0880F2A95EAF718CF2E503109F7CF51
:10124000052E97FB1EF400940E94370957FD07D026
:101250000E94520907FC03D04EF40C9437095095B4
:101260004095309521953F4F4F4F5F4F0895909592
:101270008095709561957F4F8F4F9F4F08950E9485
:101280007409A59F900DB49F900DA49F800D911D92
:1012900011240895B7FF0C943F090E943F09821B57
:1012A000930B0895A1E21A2EAA1BBB1BFD010DC0D2
:1012B000AA1FBB1FEE1FFF1FA217B307E407F50706
:1012C00020F0A21BB30BE40BF50B661F771F881FE2
:1012D000991F1A9469F760957095809590959B0178
:1012E000AC01BD01CF010895A29FB001B39FC00121
:1012F000A39F700D811D1124911DB29F700D811D42
:101300001124911D08950E948A096894B1110C94CA
:10131000DC0908950E94C10988F09F5798F0B92F01
:101320009927B751B0F0E1F0660F771F881F991F1A
:101330001AF0BA95C9F714C0B13091F00E94DB09D8
:10134000B1E008950C94DB09672F782F8827B85FE8
:1013500039F0B93FCCF3869577956795B395D9F772
:101360003EF490958095709561957F4F8F4F9F4F7C
:10137000089557FD9058440F551F59F05F3F71F085
:101380004795880F97FB991F61F09F3F79F08795EC
:101390000895121613061406551FF2CF4695F1DF75
:1013A00008C0161617061806991FF1CF8695710505
:1013B000610508940895E894BB2766277727CB0139
:1013C00097F908950E94F5090C94660A0E94580A3C
:1013D00038F00E945F0A20F0952311F00C944F0A18
:1013E0000C94550A11240C94DC090E94B90970F37D
:1013F000959FC1F3950F50E0551F629FF001729FBA
:10140000BB27F00DB11D639FAA27F00DB11DAA1FC8
:10141000649F6627B00DA11D661F829F2227B00D15
:10142000A11D621F739FB00DA11D621F839FA00DA0
:10143000611D221F749F3327A00D611D231F849FF0
:10144000600D211D822F762F6A2F11249F57504047
:101450009AF0F1F088234AF0EE0FFF1FBB1F661FC2
:10146000771F881F91505040A9F79E3F510580F08B
:101470000C944F0A0C94DC095F3FE4F3983ED4F3DC
:10148000869577956795B795F795E7959F5FC1F72F
:10149000FE2B880F911D9695879597F9089597F9DA
:1014A0009F6780E870E060E008959FEF80EC08950A
:1014B00000240A9416161706180609060895002433
:1014C0000A9412161306140605060895092E0394AD
:1014D000000C11F4882352F0BB0F40F4BF2B11F421
:1014E00060FF04C06F5F7F4F8F4F9F4F0895DB01F8
:1014F0008F939F930E943F09BF91AF91A29F800D50
:10150000911DA39F900DB29F900D11240895991BDA
:1015100079E004C0991F961708F0961B881F7A95EA
:10152000C9F780950895EE0FFF1F0590F491E02D07
:1015300009940F931F93CF93DF938230910510F49A
:1015400082E090E0E0917E02F0917F0230E020E0C6
:10155000B0E0A0E0309799F42115310509F44AC0B4
:10156000281B390B24303105D8F58A819B81611500
:10157000710589F1FB0193838283FE0111C04081D3
:1015800051810281138148175907E0F04817590724
:1015900099F4109761F012960C93129713961C937E
:1015A0003296CF01DF91CF911F910F910895009353
:1015B0007E0210937F02F4CF2115310551F04217BE
:1015C000530738F0A901DB019A01BD01DF01F801E1
:1015D000C1CFEF01F9CF90937F0280937E02CDCFF0
:1015E000FE01E20FF31F8193919322503109398359
:1015F0002883D7CF20917C0230917D02232B41F4A8
:10160000209102013091030130937D0220937C02EE
:1016100020910001309101012115310541F42DB7D0
:101620003EB74091040150910501241B350BE09118
:101630007C02F0917D02E217F307A0F42E1B3F0B12
:101640002817390778F0AC014E5F5F4F2417350734
:1016500048F04E0F5F1F50937D0240937C028193B0
:1016600091939FCFF0E0E0E09CCFCF93DF93009782
:10167000E9F0FC01329713821282A0917E02B091B0
:101680007F02ED0130E020E01097A1F4208131814C
:10169000820F931F20917C0230917D022817390719
:1016A00009F061C0F0937D02E0937C02DF91CF915D
:1016B0000895EA01CE17DF07E8F54A815B819E01B4
:1016C00041155105B1F7E901FB83EA83499159912D
:1016D000C40FD51FEC17FD0761F48081918102963C
:1016E000840F951FE90199838883828193819B836D
:1016F0008A83F0E0E0E012968D919C911397009719
:10170000B9F52D913C911197CD010296820F931F4F
:1017100020917C0230917D022817390739F63097E5
:1017200051F510927F0210927E02B0937D02A09339
:101730007C02BCCFD383C28340815181840F951F2B
:10174000C817D90761F44E5F5F4F88819981480FB0
:10175000591F518340838A819B8193838283211502
:10176000310509F0B0CFF0937F02E0937E029ECF67
:10177000FD01DC01C0CF13821282D7CFF894FFCFD6
:1017800000008002800000008C4200008C420000BB
:1017900000008A0264011D038902E602FC02710254
:1017A000000000000402640191015102C201A00185
:0217B000B40182
:00000001FF
